{"contracts/examples/ExampleSwapToPrice.sol":{"ExampleSwapToPrice":{"abi":[{"inputs":[{"internalType":"address","name":"factory_","type":"address"},{"internalType":"contract IUniswapV2Router01","name":"router_","type":"address"}],"stateMutability":"nonpayable","type":"constructor"},{"inputs":[],"name":"factory","outputs":[{"internalType":"address","name":"","type":"address"}],"stateMutability":"view","type":"function"},{"inputs":[],"name":"router","outputs":[{"internalType":"contract IUniswapV2Router01","name":"","type":"address"}],"stateMutability":"view","type":"function"},{"inputs":[{"internalType":"address","name":"tokenA","type":"address"},{"internalType":"address","name":"tokenB","type":"address"},{"internalType":"uint256","name":"truePriceTokenA","type":"uint256"},{"internalType":"uint256","name":"truePriceTokenB","type":"uint256"},{"internalType":"uint256","name":"maxSpendTokenA","type":"uint256"},{"internalType":"uint256","name":"maxSpendTokenB","type":"uint256"},{"internalType":"address","name":"to","type":"address"},{"internalType":"uint256","name":"deadline","type":"uint256"}],"name":"swapToPrice","outputs":[],"stateMutability":"nonpayable","type":"function"}],"evm":{"bytecode":{"linkReferences":{},"object":"60c060405234801561001057600080fd5b50604051610fa6380380610fa68339818101604052604081101561003357600080fd5b5080516020909101516001600160601b0319606092831b811660a052911b1660805260805160601c60a05160601c610f1961008d6000398061019152806104ad52508061025b52806102fe52806104d15250610f196000f3fe608060405234801561001057600080fd5b50600436106100415760003560e01c8063bef90fd314610046578063c45a01551461009d578063f887ea40146100c1575b600080fd5b61009b600480360361010081101561005d57600080fd5b506001600160a01b038135811691602081013582169160408201359160608101359160808201359160a08101359160c0820135169060e001356100c9565b005b6100a56104ab565b604080516001600160a01b039092168252519081900360200190f35b6100a56104cf565b85158015906100d757508415155b610128576040805162461bcd60e51b815260206004820152601e60248201527f4578616d706c6553776170546f50726963653a205a45524f5f50524943450000604482015290519081900360640190fd5b8315158061013557508215155b610186576040805162461bcd60e51b815260206004820152601e60248201527f4578616d706c6553776170546f50726963653a205a45524f5f5350454e440000604482015290519081900360640190fd5b6000806000806101b77f00000000000000000000000000000000000000000000000000000000000000008d8d6104f3565b915091506101c78a8a84846105ba565b909450925050508061020a5760405162461bcd60e51b8152600401808060200182810382526022815260200180610ec26022913960400191505060405180910390fd5b6000826102175785610219565b865b905080821115610227578091505b600083610234578a610236565b8b5b9050600084610245578c610247565b8b5b9050610255823330876106a6565b610280827f000000000000000000000000000000000000000000000000000000000000000086610803565b604080516002808252606080830184529260208301908036833701905050905082816000815181106102ae57fe5b60200260200101906001600160a01b031690816001600160a01b03168152505081816001815181106102dc57fe5b60200260200101906001600160a01b031690816001600160a01b0316815250507f00000000000000000000000000000000000000000000000000000000000000006001600160a01b03166338ed1739866000848c8c6040518663ffffffff1660e01b81526004018086815260200185815260200180602001846001600160a01b03166001600160a01b03168152602001838152602001828103825285818151815260200191508051906020019060200280838360005b838110156103aa578181015183820152602001610392565b505050509050019650505050505050600060405180830381600087803b1580156103d357600080fd5b505af11580156103e7573d6000803e3d6000fd5b505050506040513d6000823e601f3d908101601f19168201604052602081101561041057600080fd5b8101908080516040519392919084600160201b82111561042f57600080fd5b90830190602082018581111561044457600080fd5b82518660208202830111600160201b8211171561046057600080fd5b82525081516020918201928201910280838360005b8381101561048d578181015183820152602001610475565b50505050905001604052505050505050505050505050505050505050565b7f000000000000000000000000000000000000000000000000000000000000000081565b7f000000000000000000000000000000000000000000000000000000000000000081565b60008060006105028585610957565b509050600080610513888888610a35565b6001600160a01b0316630902f1ac6040518163ffffffff1660e01b815260040160606040518083038186803b15801561054b57600080fd5b505afa15801561055f573d6000803e3d6000fd5b505050506040513d606081101561057557600080fd5b5080516020909101516001600160701b0391821693501690506001600160a01b03878116908416146105a85780826105ab565b81815b90999098509650505050505050565b600080856105c9858786610af0565b10915060006105de858563ffffffff610ba816565b9050600061063061062b6105fa846103e863ffffffff610ba816565b866106055789610607565b8a5b6106266103e589610618578d61061a565b8c5b9063ffffffff610ba816565b610af0565b610c11565b905060006103e5856106535761064e876103e863ffffffff610ba816565b610665565b610665886103e863ffffffff610ba816565b8161066c57fe5b0490508082101561068757506000935083925061069d915050565b610697828263ffffffff610d5316565b93505050505b94509492505050565b604080516001600160a01b0385811660248301528481166044830152606480830185905283518084039091018152608490920183526020820180516001600160e01b03166323b872dd60e01b17815292518251600094606094938a169392918291908083835b6020831061072b5780518252601f19909201916020918201910161070c565b6001836020036101000a0380198251168184511680821785525050505050509050019150506000604051808303816000865af19150503d806000811461078d576040519150601f19603f3d011682016040523d82523d6000602084013e610792565b606091505b50915091508180156107c05750805115806107c057508080602001905160208110156107bd57600080fd5b50515b6107fb5760405162461bcd60e51b8152600401808060200182810382526031815260200180610e416031913960400191505060405180910390fd5b505050505050565b604080516001600160a01b038481166024830152604480830185905283518084039091018152606490920183526020820180516001600160e01b031663095ea7b360e01b178152925182516000946060949389169392918291908083835b602083106108805780518252601f199092019160209182019101610861565b6001836020036101000a0380198251168184511680821785525050505050509050019150506000604051808303816000865af19150503d80600081146108e2576040519150601f19603f3d011682016040523d82523d6000602084013e6108e7565b606091505b5091509150818015610915575080511580610915575080806020019051602081101561091257600080fd5b50515b6109505760405162461bcd60e51b815260040180806020018281038252602b815260200180610e97602b913960400191505060405180910390fd5b5050505050565b600080826001600160a01b0316846001600160a01b031614156109ab5760405162461bcd60e51b8152600401808060200182810382526025815260200180610e726025913960400191505060405180910390fd5b826001600160a01b0316846001600160a01b0316106109cb5782846109ce565b83835b90925090506001600160a01b038216610a2e576040805162461bcd60e51b815260206004820152601e60248201527f556e697377617056324c6962726172793a205a45524f5f414444524553530000604482015290519081900360640190fd5b9250929050565b6000806000610a448585610957565b604080516001600160601b0319606094851b811660208084019190915293851b81166034830152825160288184030181526048830184528051908501206001600160f81b031960688401529a90941b9093166069840152607d8301989098527f0968bfcf8adae8e1d3231abcf029e4786ce22a36909941f9b2b34daf79e193c4609d808401919091528851808403909101815260bd909201909752805196019590952095945050505050565b6000806000610aff8686610da3565b9150915060008480610b0d57fe5b868809905082811115610b21576001820391505b918290039181610b3f57848381610b3457fe5b049350505050610ba1565b848210610b90576040805162461bcd60e51b815260206004820152601a60248201527946756c6c4d6174683a2046554c4c4449565f4f564552464c4f5760301b604482015290519081900360640190fd5b610b9b838387610dd0565b93505050505b9392505050565b6000811580610bc357505080820282828281610bc057fe5b04145b610c0b576040805162461bcd60e51b815260206004820152601460248201527364732d6d6174682d6d756c2d6f766572666c6f7760601b604482015290519081900360640190fd5b92915050565b600081610c2057506000610d4e565b816001600160801b8210610c395760809190911c9060401b5b600160401b8210610c4f5760409190911c9060201b5b600160201b8210610c655760209190911c9060101b5b620100008210610c7a5760109190911c9060081b5b6101008210610c8e5760089190911c9060041b5b60108210610ca15760049190911c9060021b5b60088210610cad5760011b5b6001818581610cb857fe5b048201901c90506001818581610cca57fe5b048201901c90506001818581610cdc57fe5b048201901c90506001818581610cee57fe5b048201901c90506001818581610d0057fe5b048201901c90506001818581610d1257fe5b048201901c90506001818581610d2457fe5b048201901c90506000818581610d3657fe5b049050808210610d465780610d48565b815b93505050505b919050565b80820382811115610c0b576040805162461bcd60e51b815260206004820152601560248201527464732d6d6174682d7375622d756e646572666c6f7760581b604482015290519081900360640190fd5b6000808060001984860990508385029250828103915082811015610dc8576001820391505b509250929050565b60008181038216808381610de057fe5b049250808581610dec57fe5b049450808160000381610dfb57fe5b6002858103808702820302808702820302808702820302808702820302808702820302808702820302958602900390940293046001019390930293909301029291505056fe5472616e7366657248656c7065723a3a7472616e7366657246726f6d3a207472616e7366657246726f6d206661696c6564556e697377617056324c6962726172793a204944454e544943414c5f4144445245535345535472616e7366657248656c7065723a3a73616665417070726f76653a20617070726f7665206661696c65644578616d706c6553776170546f50726963653a205a45524f5f414d4f554e545f494ea2646970667358221220cb9e47c194b55694fbc837a9783d9f259a3ad701b6b83c12ce1024593cce67bc64736f6c63430006060033","opcodes":"PUSH1 0xC0 PUSH1 0x40 MSTORE CALLVALUE DUP1 ISZERO PUSH2 0x10 JUMPI PUSH1 0x0 DUP1 REVERT JUMPDEST POP PUSH1 0x40 MLOAD PUSH2 0xFA6 CODESIZE SUB DUP1 PUSH2 0xFA6 DUP4 CODECOPY DUP2 DUP2 ADD PUSH1 0x40 MSTORE PUSH1 0x40 DUP2 LT ISZERO PUSH2 0x33 JUMPI PUSH1 0x0 DUP1 REVERT JUMPDEST POP DUP1 MLOAD PUSH1 0x20 SWAP1 SWAP2 ADD MLOAD PUSH1 0x1 PUSH1 0x1 PUSH1 0x60 SHL SUB NOT PUSH1 0x60 SWAP3 DUP4 SHL DUP2 AND PUSH1 0xA0 MSTORE SWAP2 SHL AND PUSH1 0x80 MSTORE PUSH1 0x80 MLOAD PUSH1 0x60 SHR PUSH1 0xA0 MLOAD PUSH1 0x60 SHR PUSH2 0xF19 PUSH2 0x8D PUSH1 0x0 CODECOPY DUP1 PUSH2 0x191 MSTORE DUP1 PUSH2 0x4AD MSTORE POP DUP1 PUSH2 0x25B MSTORE DUP1 PUSH2 0x2FE MSTORE DUP1 PUSH2 0x4D1 MSTORE POP PUSH2 0xF19 PUSH1 0x0 RETURN INVALID PUSH1 0x80 PUSH1 0x40 MSTORE CALLVALUE DUP1 ISZERO PUSH2 0x10 JUMPI PUSH1 0x0 DUP1 REVERT JUMPDEST POP PUSH1 0x4 CALLDATASIZE LT PUSH2 0x41 JUMPI PUSH1 0x0 CALLDATALOAD PUSH1 0xE0 SHR DUP1 PUSH4 0xBEF90FD3 EQ PUSH2 0x46 JUMPI DUP1 PUSH4 0xC45A0155 EQ PUSH2 0x9D JUMPI DUP1 PUSH4 0xF887EA40 EQ PUSH2 0xC1 JUMPI JUMPDEST PUSH1 0x0 DUP1 REVERT JUMPDEST PUSH2 0x9B PUSH1 0x4 DUP1 CALLDATASIZE SUB PUSH2 0x100 DUP2 LT ISZERO PUSH2 0x5D JUMPI PUSH1 0x0 DUP1 REVERT JUMPDEST POP PUSH1 0x1 PUSH1 0x1 PUSH1 0xA0 SHL SUB DUP2 CALLDATALOAD DUP2 AND SWAP2 PUSH1 0x20 DUP2 ADD CALLDATALOAD DUP3 AND SWAP2 PUSH1 0x40 DUP3 ADD CALLDATALOAD SWAP2 PUSH1 0x60 DUP2 ADD CALLDATALOAD SWAP2 PUSH1 0x80 DUP3 ADD CALLDATALOAD SWAP2 PUSH1 0xA0 DUP2 ADD CALLDATALOAD SWAP2 PUSH1 0xC0 DUP3 ADD CALLDATALOAD AND SWAP1 PUSH1 0xE0 ADD CALLDATALOAD PUSH2 0xC9 JUMP JUMPDEST STOP JUMPDEST PUSH2 0xA5 PUSH2 0x4AB JUMP JUMPDEST PUSH1 0x40 DUP1 MLOAD PUSH1 0x1 PUSH1 0x1 PUSH1 0xA0 SHL SUB SWAP1 SWAP3 AND DUP3 MSTORE MLOAD SWAP1 DUP2 SWAP1 SUB PUSH1 0x20 ADD SWAP1 RETURN JUMPDEST PUSH2 0xA5 PUSH2 0x4CF JUMP JUMPDEST DUP6 ISZERO DUP1 ISZERO SWAP1 PUSH2 0xD7 JUMPI POP DUP5 ISZERO ISZERO JUMPDEST PUSH2 0x128 JUMPI PUSH1 0x40 DUP1 MLOAD PUSH3 0x461BCD PUSH1 0xE5 SHL DUP2 MSTORE PUSH1 0x20 PUSH1 0x4 DUP3 ADD MSTORE PUSH1 0x1E PUSH1 0x24 DUP3 ADD MSTORE PUSH32 0x4578616D706C6553776170546F50726963653A205A45524F5F50524943450000 PUSH1 0x44 DUP3 ADD MSTORE SWAP1 MLOAD SWAP1 DUP2 SWAP1 SUB PUSH1 0x64 ADD SWAP1 REVERT JUMPDEST DUP4 ISZERO ISZERO DUP1 PUSH2 0x135 JUMPI POP DUP3 ISZERO ISZERO JUMPDEST PUSH2 0x186 JUMPI PUSH1 0x40 DUP1 MLOAD PUSH3 0x461BCD PUSH1 0xE5 SHL DUP2 MSTORE PUSH1 0x20 PUSH1 0x4 DUP3 ADD MSTORE PUSH1 0x1E PUSH1 0x24 DUP3 ADD MSTORE PUSH32 0x4578616D706C6553776170546F50726963653A205A45524F5F5350454E440000 PUSH1 0x44 DUP3 ADD MSTORE SWAP1 MLOAD SWAP1 DUP2 SWAP1 SUB PUSH1 0x64 ADD SWAP1 REVERT JUMPDEST PUSH1 0x0 DUP1 PUSH1 0x0 DUP1 PUSH2 0x1B7 PUSH32 0x0 DUP14 DUP14 PUSH2 0x4F3 JUMP JUMPDEST SWAP2 POP SWAP2 POP PUSH2 0x1C7 DUP11 DUP11 DUP5 DUP5 PUSH2 0x5BA JUMP JUMPDEST SWAP1 SWAP5 POP SWAP3 POP POP POP DUP1 PUSH2 0x20A JUMPI PUSH1 0x40 MLOAD PUSH3 0x461BCD PUSH1 0xE5 SHL DUP2 MSTORE PUSH1 0x4 ADD DUP1 DUP1 PUSH1 0x20 ADD DUP3 DUP2 SUB DUP3 MSTORE PUSH1 0x22 DUP2 MSTORE PUSH1 0x20 ADD DUP1 PUSH2 0xEC2 PUSH1 0x22 SWAP2 CODECOPY PUSH1 0x40 ADD SWAP2 POP POP PUSH1 0x40 MLOAD DUP1 SWAP2 SUB SWAP1 REVERT JUMPDEST PUSH1 0x0 DUP3 PUSH2 0x217 JUMPI DUP6 PUSH2 0x219 JUMP JUMPDEST DUP7 JUMPDEST SWAP1 POP DUP1 DUP3 GT ISZERO PUSH2 0x227 JUMPI DUP1 SWAP2 POP JUMPDEST PUSH1 0x0 DUP4 PUSH2 0x234 JUMPI DUP11 PUSH2 0x236 JUMP JUMPDEST DUP12 JUMPDEST SWAP1 POP PUSH1 0x0 DUP5 PUSH2 0x245 JUMPI DUP13 PUSH2 0x247 JUMP JUMPDEST DUP12 JUMPDEST SWAP1 POP PUSH2 0x255 DUP3 CALLER ADDRESS DUP8 PUSH2 0x6A6 JUMP JUMPDEST PUSH2 0x280 DUP3 PUSH32 0x0 DUP7 PUSH2 0x803 JUMP JUMPDEST PUSH1 0x40 DUP1 MLOAD PUSH1 0x2 DUP1 DUP3 MSTORE PUSH1 0x60 DUP1 DUP4 ADD DUP5 MSTORE SWAP3 PUSH1 0x20 DUP4 ADD SWAP1 DUP1 CALLDATASIZE DUP4 CALLDATACOPY ADD SWAP1 POP POP SWAP1 POP DUP3 DUP2 PUSH1 0x0 DUP2 MLOAD DUP2 LT PUSH2 0x2AE JUMPI INVALID JUMPDEST PUSH1 0x20 MUL PUSH1 0x20 ADD ADD SWAP1 PUSH1 0x1 PUSH1 0x1 PUSH1 0xA0 SHL SUB AND SWAP1 DUP2 PUSH1 0x1 PUSH1 0x1 PUSH1 0xA0 SHL SUB AND DUP2 MSTORE POP POP DUP2 DUP2 PUSH1 0x1 DUP2 MLOAD DUP2 LT PUSH2 0x2DC JUMPI INVALID JUMPDEST PUSH1 0x20 MUL PUSH1 0x20 ADD ADD SWAP1 PUSH1 0x1 PUSH1 0x1 PUSH1 0xA0 SHL SUB AND SWAP1 DUP2 PUSH1 0x1 PUSH1 0x1 PUSH1 0xA0 SHL SUB AND DUP2 MSTORE POP POP PUSH32 0x0 PUSH1 0x1 PUSH1 0x1 PUSH1 0xA0 SHL SUB AND PUSH4 0x38ED1739 DUP7 PUSH1 0x0 DUP5 DUP13 DUP13 PUSH1 0x40 MLOAD DUP7 PUSH4 0xFFFFFFFF AND PUSH1 0xE0 SHL DUP2 MSTORE PUSH1 0x4 ADD DUP1 DUP7 DUP2 MSTORE PUSH1 0x20 ADD DUP6 DUP2 MSTORE PUSH1 0x20 ADD DUP1 PUSH1 0x20 ADD DUP5 PUSH1 0x1 PUSH1 0x1 PUSH1 0xA0 SHL SUB AND PUSH1 0x1 PUSH1 0x1 PUSH1 0xA0 SHL SUB AND DUP2 MSTORE PUSH1 0x20 ADD DUP4 DUP2 MSTORE PUSH1 0x20 ADD DUP3 DUP2 SUB DUP3 MSTORE DUP6 DUP2 DUP2 MLOAD DUP2 MSTORE PUSH1 0x20 ADD SWAP2 POP DUP1 MLOAD SWAP1 PUSH1 0x20 ADD SWAP1 PUSH1 0x20 MUL DUP1 DUP4 DUP4 PUSH1 0x0 JUMPDEST DUP4 DUP2 LT ISZERO PUSH2 0x3AA JUMPI DUP2 DUP2 ADD MLOAD DUP4 DUP3 ADD MSTORE PUSH1 0x20 ADD PUSH2 0x392 JUMP JUMPDEST POP POP POP POP SWAP1 POP ADD SWAP7 POP POP POP POP POP POP POP PUSH1 0x0 PUSH1 0x40 MLOAD DUP1 DUP4 SUB DUP2 PUSH1 0x0 DUP8 DUP1 EXTCODESIZE ISZERO DUP1 ISZERO PUSH2 0x3D3 JUMPI PUSH1 0x0 DUP1 REVERT JUMPDEST POP GAS CALL ISZERO DUP1 ISZERO PUSH2 0x3E7 JUMPI RETURNDATASIZE PUSH1 0x0 DUP1 RETURNDATACOPY RETURNDATASIZE PUSH1 0x0 REVERT JUMPDEST POP POP POP POP PUSH1 0x40 MLOAD RETURNDATASIZE PUSH1 0x0 DUP3 RETURNDATACOPY PUSH1 0x1F RETURNDATASIZE SWAP1 DUP2 ADD PUSH1 0x1F NOT AND DUP3 ADD PUSH1 0x40 MSTORE PUSH1 0x20 DUP2 LT ISZERO PUSH2 0x410 JUMPI PUSH1 0x0 DUP1 REVERT JUMPDEST DUP2 ADD SWAP1 DUP1 DUP1 MLOAD PUSH1 0x40 MLOAD SWAP4 SWAP3 SWAP2 SWAP1 DUP5 PUSH1 0x1 PUSH1 0x20 SHL DUP3 GT ISZERO PUSH2 0x42F JUMPI PUSH1 0x0 DUP1 REVERT JUMPDEST SWAP1 DUP4 ADD SWAP1 PUSH1 0x20 DUP3 ADD DUP6 DUP2 GT ISZERO PUSH2 0x444 JUMPI PUSH1 0x0 DUP1 REVERT JUMPDEST DUP3 MLOAD DUP7 PUSH1 0x20 DUP3 MUL DUP4 ADD GT PUSH1 0x1 PUSH1 0x20 SHL DUP3 GT OR ISZERO PUSH2 0x460 JUMPI PUSH1 0x0 DUP1 REVERT JUMPDEST DUP3 MSTORE POP DUP2 MLOAD PUSH1 0x20 SWAP2 DUP3 ADD SWAP3 DUP3 ADD SWAP2 MUL DUP1 DUP4 DUP4 PUSH1 0x0 JUMPDEST DUP4 DUP2 LT ISZERO PUSH2 0x48D JUMPI DUP2 DUP2 ADD MLOAD DUP4 DUP3 ADD MSTORE PUSH1 0x20 ADD PUSH2 0x475 JUMP JUMPDEST POP POP POP POP SWAP1 POP ADD PUSH1 0x40 MSTORE POP POP POP POP POP POP POP POP POP POP POP POP POP POP POP POP POP POP JUMP JUMPDEST PUSH32 0x0 DUP2 JUMP JUMPDEST PUSH32 0x0 DUP2 JUMP JUMPDEST PUSH1 0x0 DUP1 PUSH1 0x0 PUSH2 0x502 DUP6 DUP6 PUSH2 0x957 JUMP JUMPDEST POP SWAP1 POP PUSH1 0x0 DUP1 PUSH2 0x513 DUP9 DUP9 DUP9 PUSH2 0xA35 JUMP JUMPDEST PUSH1 0x1 PUSH1 0x1 PUSH1 0xA0 SHL SUB AND PUSH4 0x902F1AC PUSH1 0x40 MLOAD DUP2 PUSH4 0xFFFFFFFF AND PUSH1 0xE0 SHL DUP2 MSTORE PUSH1 0x4 ADD PUSH1 0x60 PUSH1 0x40 MLOAD DUP1 DUP4 SUB DUP2 DUP7 DUP1 EXTCODESIZE ISZERO DUP1 ISZERO PUSH2 0x54B JUMPI PUSH1 0x0 DUP1 REVERT JUMPDEST POP GAS STATICCALL ISZERO DUP1 ISZERO PUSH2 0x55F JUMPI RETURNDATASIZE PUSH1 0x0 DUP1 RETURNDATACOPY RETURNDATASIZE PUSH1 0x0 REVERT JUMPDEST POP POP POP POP PUSH1 0x40 MLOAD RETURNDATASIZE PUSH1 0x60 DUP2 LT ISZERO PUSH2 0x575 JUMPI PUSH1 0x0 DUP1 REVERT JUMPDEST POP DUP1 MLOAD PUSH1 0x20 SWAP1 SWAP2 ADD MLOAD PUSH1 0x1 PUSH1 0x1 PUSH1 0x70 SHL SUB SWAP2 DUP3 AND SWAP4 POP AND SWAP1 POP PUSH1 0x1 PUSH1 0x1 PUSH1 0xA0 SHL SUB DUP8 DUP2 AND SWAP1 DUP5 AND EQ PUSH2 0x5A8 JUMPI DUP1 DUP3 PUSH2 0x5AB JUMP JUMPDEST DUP2 DUP2 JUMPDEST SWAP1 SWAP10 SWAP1 SWAP9 POP SWAP7 POP POP POP POP POP POP POP JUMP JUMPDEST PUSH1 0x0 DUP1 DUP6 PUSH2 0x5C9 DUP6 DUP8 DUP7 PUSH2 0xAF0 JUMP JUMPDEST LT SWAP2 POP PUSH1 0x0 PUSH2 0x5DE DUP6 DUP6 PUSH4 0xFFFFFFFF PUSH2 0xBA8 AND JUMP JUMPDEST SWAP1 POP PUSH1 0x0 PUSH2 0x630 PUSH2 0x62B PUSH2 0x5FA DUP5 PUSH2 0x3E8 PUSH4 0xFFFFFFFF PUSH2 0xBA8 AND JUMP JUMPDEST DUP7 PUSH2 0x605 JUMPI DUP10 PUSH2 0x607 JUMP JUMPDEST DUP11 JUMPDEST PUSH2 0x626 PUSH2 0x3E5 DUP10 PUSH2 0x618 JUMPI DUP14 PUSH2 0x61A JUMP JUMPDEST DUP13 JUMPDEST SWAP1 PUSH4 0xFFFFFFFF PUSH2 0xBA8 AND JUMP JUMPDEST PUSH2 0xAF0 JUMP JUMPDEST PUSH2 0xC11 JUMP JUMPDEST SWAP1 POP PUSH1 0x0 PUSH2 0x3E5 DUP6 PUSH2 0x653 JUMPI PUSH2 0x64E DUP8 PUSH2 0x3E8 PUSH4 0xFFFFFFFF PUSH2 0xBA8 AND JUMP JUMPDEST PUSH2 0x665 JUMP JUMPDEST PUSH2 0x665 DUP9 PUSH2 0x3E8 PUSH4 0xFFFFFFFF PUSH2 0xBA8 AND JUMP JUMPDEST DUP2 PUSH2 0x66C JUMPI INVALID JUMPDEST DIV SWAP1 POP DUP1 DUP3 LT ISZERO PUSH2 0x687 JUMPI POP PUSH1 0x0 SWAP4 POP DUP4 SWAP3 POP PUSH2 0x69D SWAP2 POP POP JUMP JUMPDEST PUSH2 0x697 DUP3 DUP3 PUSH4 0xFFFFFFFF PUSH2 0xD53 AND JUMP JUMPDEST SWAP4 POP POP POP POP JUMPDEST SWAP5 POP SWAP5 SWAP3 POP POP POP JUMP JUMPDEST PUSH1 0x40 DUP1 MLOAD PUSH1 0x1 PUSH1 0x1 PUSH1 0xA0 SHL SUB DUP6 DUP2 AND PUSH1 0x24 DUP4 ADD MSTORE DUP5 DUP2 AND PUSH1 0x44 DUP4 ADD MSTORE PUSH1 0x64 DUP1 DUP4 ADD DUP6 SWAP1 MSTORE DUP4 MLOAD DUP1 DUP5 SUB SWAP1 SWAP2 ADD DUP2 MSTORE PUSH1 0x84 SWAP1 SWAP3 ADD DUP4 MSTORE PUSH1 0x20 DUP3 ADD DUP1 MLOAD PUSH1 0x1 PUSH1 0x1 PUSH1 0xE0 SHL SUB AND PUSH4 0x23B872DD PUSH1 0xE0 SHL OR DUP2 MSTORE SWAP3 MLOAD DUP3 MLOAD PUSH1 0x0 SWAP5 PUSH1 0x60 SWAP5 SWAP4 DUP11 AND SWAP4 SWAP3 SWAP2 DUP3 SWAP2 SWAP1 DUP1 DUP4 DUP4 JUMPDEST PUSH1 0x20 DUP4 LT PUSH2 0x72B JUMPI DUP1 MLOAD DUP3 MSTORE PUSH1 0x1F NOT SWAP1 SWAP3 ADD SWAP2 PUSH1 0x20 SWAP2 DUP3 ADD SWAP2 ADD PUSH2 0x70C JUMP JUMPDEST PUSH1 0x1 DUP4 PUSH1 0x20 SUB PUSH2 0x100 EXP SUB DUP1 NOT DUP3 MLOAD AND DUP2 DUP5 MLOAD AND DUP1 DUP3 OR DUP6 MSTORE POP POP POP POP POP POP SWAP1 POP ADD SWAP2 POP POP PUSH1 0x0 PUSH1 0x40 MLOAD DUP1 DUP4 SUB DUP2 PUSH1 0x0 DUP7 GAS CALL SWAP2 POP POP RETURNDATASIZE DUP1 PUSH1 0x0 DUP2 EQ PUSH2 0x78D JUMPI PUSH1 0x40 MLOAD SWAP2 POP PUSH1 0x1F NOT PUSH1 0x3F RETURNDATASIZE ADD AND DUP3 ADD PUSH1 0x40 MSTORE RETURNDATASIZE DUP3 MSTORE RETURNDATASIZE PUSH1 0x0 PUSH1 0x20 DUP5 ADD RETURNDATACOPY PUSH2 0x792 JUMP JUMPDEST PUSH1 0x60 SWAP2 POP JUMPDEST POP SWAP2 POP SWAP2 POP DUP2 DUP1 ISZERO PUSH2 0x7C0 JUMPI POP DUP1 MLOAD ISZERO DUP1 PUSH2 0x7C0 JUMPI POP DUP1 DUP1 PUSH1 0x20 ADD SWAP1 MLOAD PUSH1 0x20 DUP2 LT ISZERO PUSH2 0x7BD JUMPI PUSH1 0x0 DUP1 REVERT JUMPDEST POP MLOAD JUMPDEST PUSH2 0x7FB JUMPI PUSH1 0x40 MLOAD PUSH3 0x461BCD PUSH1 0xE5 SHL DUP2 MSTORE PUSH1 0x4 ADD DUP1 DUP1 PUSH1 0x20 ADD DUP3 DUP2 SUB DUP3 MSTORE PUSH1 0x31 DUP2 MSTORE PUSH1 0x20 ADD DUP1 PUSH2 0xE41 PUSH1 0x31 SWAP2 CODECOPY PUSH1 0x40 ADD SWAP2 POP POP PUSH1 0x40 MLOAD DUP1 SWAP2 SUB SWAP1 REVERT JUMPDEST POP POP POP POP POP POP JUMP JUMPDEST PUSH1 0x40 DUP1 MLOAD PUSH1 0x1 PUSH1 0x1 PUSH1 0xA0 SHL SUB DUP5 DUP2 AND PUSH1 0x24 DUP4 ADD MSTORE PUSH1 0x44 DUP1 DUP4 ADD DUP6 SWAP1 MSTORE DUP4 MLOAD DUP1 DUP5 SUB SWAP1 SWAP2 ADD DUP2 MSTORE PUSH1 0x64 SWAP1 SWAP3 ADD DUP4 MSTORE PUSH1 0x20 DUP3 ADD DUP1 MLOAD PUSH1 0x1 PUSH1 0x1 PUSH1 0xE0 SHL SUB AND PUSH4 0x95EA7B3 PUSH1 0xE0 SHL OR DUP2 MSTORE SWAP3 MLOAD DUP3 MLOAD PUSH1 0x0 SWAP5 PUSH1 0x60 SWAP5 SWAP4 DUP10 AND SWAP4 SWAP3 SWAP2 DUP3 SWAP2 SWAP1 DUP1 DUP4 DUP4 JUMPDEST PUSH1 0x20 DUP4 LT PUSH2 0x880 JUMPI DUP1 MLOAD DUP3 MSTORE PUSH1 0x1F NOT SWAP1 SWAP3 ADD SWAP2 PUSH1 0x20 SWAP2 DUP3 ADD SWAP2 ADD PUSH2 0x861 JUMP JUMPDEST PUSH1 0x1 DUP4 PUSH1 0x20 SUB PUSH2 0x100 EXP SUB DUP1 NOT DUP3 MLOAD AND DUP2 DUP5 MLOAD AND DUP1 DUP3 OR DUP6 MSTORE POP POP POP POP POP POP SWAP1 POP ADD SWAP2 POP POP PUSH1 0x0 PUSH1 0x40 MLOAD DUP1 DUP4 SUB DUP2 PUSH1 0x0 DUP7 GAS CALL SWAP2 POP POP RETURNDATASIZE DUP1 PUSH1 0x0 DUP2 EQ PUSH2 0x8E2 JUMPI PUSH1 0x40 MLOAD SWAP2 POP PUSH1 0x1F NOT PUSH1 0x3F RETURNDATASIZE ADD AND DUP3 ADD PUSH1 0x40 MSTORE RETURNDATASIZE DUP3 MSTORE RETURNDATASIZE PUSH1 0x0 PUSH1 0x20 DUP5 ADD RETURNDATACOPY PUSH2 0x8E7 JUMP JUMPDEST PUSH1 0x60 SWAP2 POP JUMPDEST POP SWAP2 POP SWAP2 POP DUP2 DUP1 ISZERO PUSH2 0x915 JUMPI POP DUP1 MLOAD ISZERO DUP1 PUSH2 0x915 JUMPI POP DUP1 DUP1 PUSH1 0x20 ADD SWAP1 MLOAD PUSH1 0x20 DUP2 LT ISZERO PUSH2 0x912 JUMPI PUSH1 0x0 DUP1 REVERT JUMPDEST POP MLOAD JUMPDEST PUSH2 0x950 JUMPI PUSH1 0x40 MLOAD PUSH3 0x461BCD PUSH1 0xE5 SHL DUP2 MSTORE PUSH1 0x4 ADD DUP1 DUP1 PUSH1 0x20 ADD DUP3 DUP2 SUB DUP3 MSTORE PUSH1 0x2B DUP2 MSTORE PUSH1 0x20 ADD DUP1 PUSH2 0xE97 PUSH1 0x2B SWAP2 CODECOPY PUSH1 0x40 ADD SWAP2 POP POP PUSH1 0x40 MLOAD DUP1 SWAP2 SUB SWAP1 REVERT JUMPDEST POP POP POP POP POP JUMP JUMPDEST PUSH1 0x0 DUP1 DUP3 PUSH1 0x1 PUSH1 0x1 PUSH1 0xA0 SHL SUB AND DUP5 PUSH1 0x1 PUSH1 0x1 PUSH1 0xA0 SHL SUB AND EQ ISZERO PUSH2 0x9AB JUMPI PUSH1 0x40 MLOAD PUSH3 0x461BCD PUSH1 0xE5 SHL DUP2 MSTORE PUSH1 0x4 ADD DUP1 DUP1 PUSH1 0x20 ADD DUP3 DUP2 SUB DUP3 MSTORE PUSH1 0x25 DUP2 MSTORE PUSH1 0x20 ADD DUP1 PUSH2 0xE72 PUSH1 0x25 SWAP2 CODECOPY PUSH1 0x40 ADD SWAP2 POP POP PUSH1 0x40 MLOAD DUP1 SWAP2 SUB SWAP1 REVERT JUMPDEST DUP3 PUSH1 0x1 PUSH1 0x1 PUSH1 0xA0 SHL SUB AND DUP5 PUSH1 0x1 PUSH1 0x1 PUSH1 0xA0 SHL SUB AND LT PUSH2 0x9CB JUMPI DUP3 DUP5 PUSH2 0x9CE JUMP JUMPDEST DUP4 DUP4 JUMPDEST SWAP1 SWAP3 POP SWAP1 POP PUSH1 0x1 PUSH1 0x1 PUSH1 0xA0 SHL SUB DUP3 AND PUSH2 0xA2E JUMPI PUSH1 0x40 DUP1 MLOAD PUSH3 0x461BCD PUSH1 0xE5 SHL DUP2 MSTORE PUSH1 0x20 PUSH1 0x4 DUP3 ADD MSTORE PUSH1 0x1E PUSH1 0x24 DUP3 ADD MSTORE PUSH32 0x556E697377617056324C6962726172793A205A45524F5F414444524553530000 PUSH1 0x44 DUP3 ADD MSTORE SWAP1 MLOAD SWAP1 DUP2 SWAP1 SUB PUSH1 0x64 ADD SWAP1 REVERT JUMPDEST SWAP3 POP SWAP3 SWAP1 POP JUMP JUMPDEST PUSH1 0x0 DUP1 PUSH1 0x0 PUSH2 0xA44 DUP6 DUP6 PUSH2 0x957 JUMP JUMPDEST PUSH1 0x40 DUP1 MLOAD PUSH1 0x1 PUSH1 0x1 PUSH1 0x60 SHL SUB NOT PUSH1 0x60 SWAP5 DUP6 SHL DUP2 AND PUSH1 0x20 DUP1 DUP5 ADD SWAP2 SWAP1 SWAP2 MSTORE SWAP4 DUP6 SHL DUP2 AND PUSH1 0x34 DUP4 ADD MSTORE DUP3 MLOAD PUSH1 0x28 DUP2 DUP5 SUB ADD DUP2 MSTORE PUSH1 0x48 DUP4 ADD DUP5 MSTORE DUP1 MLOAD SWAP1 DUP6 ADD KECCAK256 PUSH1 0x1 PUSH1 0x1 PUSH1 0xF8 SHL SUB NOT PUSH1 0x68 DUP5 ADD MSTORE SWAP11 SWAP1 SWAP5 SHL SWAP1 SWAP4 AND PUSH1 0x69 DUP5 ADD MSTORE PUSH1 0x7D DUP4 ADD SWAP9 SWAP1 SWAP9 MSTORE PUSH32 0x968BFCF8ADAE8E1D3231ABCF029E4786CE22A36909941F9B2B34DAF79E193C4 PUSH1 0x9D DUP1 DUP5 ADD SWAP2 SWAP1 SWAP2 MSTORE DUP9 MLOAD DUP1 DUP5 SUB SWAP1 SWAP2 ADD DUP2 MSTORE PUSH1 0xBD SWAP1 SWAP3 ADD SWAP1 SWAP8 MSTORE DUP1 MLOAD SWAP7 ADD SWAP6 SWAP1 SWAP6 KECCAK256 SWAP6 SWAP5 POP POP POP POP POP JUMP JUMPDEST PUSH1 0x0 DUP1 PUSH1 0x0 PUSH2 0xAFF DUP7 DUP7 PUSH2 0xDA3 JUMP JUMPDEST SWAP2 POP SWAP2 POP PUSH1 0x0 DUP5 DUP1 PUSH2 0xB0D JUMPI INVALID JUMPDEST DUP7 DUP9 MULMOD SWAP1 POP DUP3 DUP2 GT ISZERO PUSH2 0xB21 JUMPI PUSH1 0x1 DUP3 SUB SWAP2 POP JUMPDEST SWAP2 DUP3 SWAP1 SUB SWAP2 DUP2 PUSH2 0xB3F JUMPI DUP5 DUP4 DUP2 PUSH2 0xB34 JUMPI INVALID JUMPDEST DIV SWAP4 POP POP POP POP PUSH2 0xBA1 JUMP JUMPDEST DUP5 DUP3 LT PUSH2 0xB90 JUMPI PUSH1 0x40 DUP1 MLOAD PUSH3 0x461BCD PUSH1 0xE5 SHL DUP2 MSTORE PUSH1 0x20 PUSH1 0x4 DUP3 ADD MSTORE PUSH1 0x1A PUSH1 0x24 DUP3 ADD MSTORE PUSH26 0x46756C6C4D6174683A2046554C4C4449565F4F564552464C4F57 PUSH1 0x30 SHL PUSH1 0x44 DUP3 ADD MSTORE SWAP1 MLOAD SWAP1 DUP2 SWAP1 SUB PUSH1 0x64 ADD SWAP1 REVERT JUMPDEST PUSH2 0xB9B DUP4 DUP4 DUP8 PUSH2 0xDD0 JUMP JUMPDEST SWAP4 POP POP POP POP JUMPDEST SWAP4 SWAP3 POP POP POP JUMP JUMPDEST PUSH1 0x0 DUP2 ISZERO DUP1 PUSH2 0xBC3 JUMPI POP POP DUP1 DUP3 MUL DUP3 DUP3 DUP3 DUP2 PUSH2 0xBC0 JUMPI INVALID JUMPDEST DIV EQ JUMPDEST PUSH2 0xC0B JUMPI PUSH1 0x40 DUP1 MLOAD PUSH3 0x461BCD PUSH1 0xE5 SHL DUP2 MSTORE PUSH1 0x20 PUSH1 0x4 DUP3 ADD MSTORE PUSH1 0x14 PUSH1 0x24 DUP3 ADD MSTORE PUSH20 0x64732D6D6174682D6D756C2D6F766572666C6F77 PUSH1 0x60 SHL PUSH1 0x44 DUP3 ADD MSTORE SWAP1 MLOAD SWAP1 DUP2 SWAP1 SUB PUSH1 0x64 ADD SWAP1 REVERT JUMPDEST SWAP3 SWAP2 POP POP JUMP JUMPDEST PUSH1 0x0 DUP2 PUSH2 0xC20 JUMPI POP PUSH1 0x0 PUSH2 0xD4E JUMP JUMPDEST DUP2 PUSH1 0x1 PUSH1 0x1 PUSH1 0x80 SHL DUP3 LT PUSH2 0xC39 JUMPI PUSH1 0x80 SWAP2 SWAP1 SWAP2 SHR SWAP1 PUSH1 0x40 SHL JUMPDEST PUSH1 0x1 PUSH1 0x40 SHL DUP3 LT PUSH2 0xC4F JUMPI PUSH1 0x40 SWAP2 SWAP1 SWAP2 SHR SWAP1 PUSH1 0x20 SHL JUMPDEST PUSH1 0x1 PUSH1 0x20 SHL DUP3 LT PUSH2 0xC65 JUMPI PUSH1 0x20 SWAP2 SWAP1 SWAP2 SHR SWAP1 PUSH1 0x10 SHL JUMPDEST PUSH3 0x10000 DUP3 LT PUSH2 0xC7A JUMPI PUSH1 0x10 SWAP2 SWAP1 SWAP2 SHR SWAP1 PUSH1 0x8 SHL JUMPDEST PUSH2 0x100 DUP3 LT PUSH2 0xC8E JUMPI PUSH1 0x8 SWAP2 SWAP1 SWAP2 SHR SWAP1 PUSH1 0x4 SHL JUMPDEST PUSH1 0x10 DUP3 LT PUSH2 0xCA1 JUMPI PUSH1 0x4 SWAP2 SWAP1 SWAP2 SHR SWAP1 PUSH1 0x2 SHL JUMPDEST PUSH1 0x8 DUP3 LT PUSH2 0xCAD JUMPI PUSH1 0x1 SHL JUMPDEST PUSH1 0x1 DUP2 DUP6 DUP2 PUSH2 0xCB8 JUMPI INVALID JUMPDEST DIV DUP3 ADD SWAP1 SHR SWAP1 POP PUSH1 0x1 DUP2 DUP6 DUP2 PUSH2 0xCCA JUMPI INVALID JUMPDEST DIV DUP3 ADD SWAP1 SHR SWAP1 POP PUSH1 0x1 DUP2 DUP6 DUP2 PUSH2 0xCDC JUMPI INVALID JUMPDEST DIV DUP3 ADD SWAP1 SHR SWAP1 POP PUSH1 0x1 DUP2 DUP6 DUP2 PUSH2 0xCEE JUMPI INVALID JUMPDEST DIV DUP3 ADD SWAP1 SHR SWAP1 POP PUSH1 0x1 DUP2 DUP6 DUP2 PUSH2 0xD00 JUMPI INVALID JUMPDEST DIV DUP3 ADD SWAP1 SHR SWAP1 POP PUSH1 0x1 DUP2 DUP6 DUP2 PUSH2 0xD12 JUMPI INVALID JUMPDEST DIV DUP3 ADD SWAP1 SHR SWAP1 POP PUSH1 0x1 DUP2 DUP6 DUP2 PUSH2 0xD24 JUMPI INVALID JUMPDEST DIV DUP3 ADD SWAP1 SHR SWAP1 POP PUSH1 0x0 DUP2 DUP6 DUP2 PUSH2 0xD36 JUMPI INVALID JUMPDEST DIV SWAP1 POP DUP1 DUP3 LT PUSH2 0xD46 JUMPI DUP1 PUSH2 0xD48 JUMP JUMPDEST DUP2 JUMPDEST SWAP4 POP POP POP POP JUMPDEST SWAP2 SWAP1 POP JUMP JUMPDEST DUP1 DUP3 SUB DUP3 DUP2 GT ISZERO PUSH2 0xC0B JUMPI PUSH1 0x40 DUP1 MLOAD PUSH3 0x461BCD PUSH1 0xE5 SHL DUP2 MSTORE PUSH1 0x20 PUSH1 0x4 DUP3 ADD MSTORE PUSH1 0x15 PUSH1 0x24 DUP3 ADD MSTORE PUSH21 0x64732D6D6174682D7375622D756E646572666C6F77 PUSH1 0x58 SHL PUSH1 0x44 DUP3 ADD MSTORE SWAP1 MLOAD SWAP1 DUP2 SWAP1 SUB PUSH1 0x64 ADD SWAP1 REVERT JUMPDEST PUSH1 0x0 DUP1 DUP1 PUSH1 0x0 NOT DUP5 DUP7 MULMOD SWAP1 POP DUP4 DUP6 MUL SWAP3 POP DUP3 DUP2 SUB SWAP2 POP DUP3 DUP2 LT ISZERO PUSH2 0xDC8 JUMPI PUSH1 0x1 DUP3 SUB SWAP2 POP JUMPDEST POP SWAP3 POP SWAP3 SWAP1 POP JUMP JUMPDEST PUSH1 0x0 DUP2 DUP2 SUB DUP3 AND DUP1 DUP4 DUP2 PUSH2 0xDE0 JUMPI INVALID JUMPDEST DIV SWAP3 POP DUP1 DUP6 DUP2 PUSH2 0xDEC JUMPI INVALID JUMPDEST DIV SWAP5 POP DUP1 DUP2 PUSH1 0x0 SUB DUP2 PUSH2 0xDFB JUMPI INVALID JUMPDEST PUSH1 0x2 DUP6 DUP2 SUB DUP1 DUP8 MUL DUP3 SUB MUL DUP1 DUP8 MUL DUP3 SUB MUL DUP1 DUP8 MUL DUP3 SUB MUL DUP1 DUP8 MUL DUP3 SUB MUL DUP1 DUP8 MUL DUP3 SUB MUL DUP1 DUP8 MUL DUP3 SUB MUL SWAP6 DUP7 MUL SWAP1 SUB SWAP1 SWAP5 MUL SWAP4 DIV PUSH1 0x1 ADD SWAP4 SWAP1 SWAP4 MUL SWAP4 SWAP1 SWAP4 ADD MUL SWAP3 SWAP2 POP POP JUMP INVALID SLOAD PUSH19 0x616E7366657248656C7065723A3A7472616E73 PUSH7 0x657246726F6D3A KECCAK256 PUSH21 0x72616E7366657246726F6D206661696C6564556E69 PUSH20 0x77617056324C6962726172793A204944454E5449 NUMBER COINBASE 0x4C 0x5F COINBASE DIFFICULTY DIFFICULTY MSTORE GASLIMIT MSTORE8 MSTORE8 GASLIMIT MSTORE8 SLOAD PUSH19 0x616E7366657248656C7065723A3A7361666541 PUSH17 0x70726F76653A20617070726F7665206661 PUSH10 0x6C65644578616D706C65 MSTORE8 PUSH24 0x6170546F50726963653A205A45524F5F414D4F554E545F49 0x4E LOG2 PUSH5 0x6970667358 0x22 SLT KECCAK256 0xCB SWAP15 SELFBALANCE 0xC1 SWAP5 0xB5 JUMP SWAP5 0xFB 0xC8 CALLDATACOPY 0xA9 PUSH25 0x3D9F259A3AD701B6B83C12CE1024593CCE67BC64736F6C6343 STOP MOD MOD STOP CALLER "},"methodIdentifiers":{"factory()":"c45a0155","router()":"f887ea40","swapToPrice(address,address,uint256,uint256,uint256,uint256,address,uint256)":"bef90fd3"}}}}}