{
  "_format": "hh-sol-artifact-1",
  "contractName": "ExampleSwapToPrice",
  "sourceName": "contracts/examples/ExampleSwapToPrice.sol",
  "abi": [
    {
      "inputs": [
        {
          "internalType": "address",
          "name": "factory_",
          "type": "address"
        },
        {
          "internalType": "contract IUniswapV2Router01",
          "name": "router_",
          "type": "address"
        }
      ],
      "stateMutability": "nonpayable",
      "type": "constructor"
    },
    {
      "inputs": [],
      "name": "factory",
      "outputs": [
        {
          "internalType": "address",
          "name": "",
          "type": "address"
        }
      ],
      "stateMutability": "view",
      "type": "function"
    },
    {
      "inputs": [],
      "name": "router",
      "outputs": [
        {
          "internalType": "contract IUniswapV2Router01",
          "name": "",
          "type": "address"
        }
      ],
      "stateMutability": "view",
      "type": "function"
    },
    {
      "inputs": [
        {
          "internalType": "address",
          "name": "tokenA",
          "type": "address"
        },
        {
          "internalType": "address",
          "name": "tokenB",
          "type": "address"
        },
        {
          "internalType": "uint256",
          "name": "truePriceTokenA",
          "type": "uint256"
        },
        {
          "internalType": "uint256",
          "name": "truePriceTokenB",
          "type": "uint256"
        },
        {
          "internalType": "uint256",
          "name": "maxSpendTokenA",
          "type": "uint256"
        },
        {
          "internalType": "uint256",
          "name": "maxSpendTokenB",
          "type": "uint256"
        },
        {
          "internalType": "address",
          "name": "to",
          "type": "address"
        },
        {
          "internalType": "uint256",
          "name": "deadline",
          "type": "uint256"
        }
      ],
      "name": "swapToPrice",
      "outputs": [],
      "stateMutability": "nonpayable",
      "type": "function"
    }
  ],
  "bytecode": "0x60c060405234801561001057600080fd5b50604051610fa6380380610fa68339818101604052604081101561003357600080fd5b5080516020909101516001600160601b0319606092831b811660a052911b1660805260805160601c60a05160601c610f1961008d6000398061019152806104ad52508061025b52806102fe52806104d15250610f196000f3fe608060405234801561001057600080fd5b50600436106100415760003560e01c8063bef90fd314610046578063c45a01551461009d578063f887ea40146100c1575b600080fd5b61009b600480360361010081101561005d57600080fd5b506001600160a01b038135811691602081013582169160408201359160608101359160808201359160a08101359160c0820135169060e001356100c9565b005b6100a56104ab565b604080516001600160a01b039092168252519081900360200190f35b6100a56104cf565b85158015906100d757508415155b610128576040805162461bcd60e51b815260206004820152601e60248201527f4578616d706c6553776170546f50726963653a205a45524f5f50524943450000604482015290519081900360640190fd5b8315158061013557508215155b610186576040805162461bcd60e51b815260206004820152601e60248201527f4578616d706c6553776170546f50726963653a205a45524f5f5350454e440000604482015290519081900360640190fd5b6000806000806101b77f00000000000000000000000000000000000000000000000000000000000000008d8d6104f3565b915091506101c78a8a84846105ba565b909450925050508061020a5760405162461bcd60e51b8152600401808060200182810382526022815260200180610ec26022913960400191505060405180910390fd5b6000826102175785610219565b865b905080821115610227578091505b600083610234578a610236565b8b5b9050600084610245578c610247565b8b5b9050610255823330876106a6565b610280827f000000000000000000000000000000000000000000000000000000000000000086610803565b604080516002808252606080830184529260208301908036833701905050905082816000815181106102ae57fe5b60200260200101906001600160a01b031690816001600160a01b03168152505081816001815181106102dc57fe5b60200260200101906001600160a01b031690816001600160a01b0316815250507f00000000000000000000000000000000000000000000000000000000000000006001600160a01b03166338ed1739866000848c8c6040518663ffffffff1660e01b81526004018086815260200185815260200180602001846001600160a01b03166001600160a01b03168152602001838152602001828103825285818151815260200191508051906020019060200280838360005b838110156103aa578181015183820152602001610392565b505050509050019650505050505050600060405180830381600087803b1580156103d357600080fd5b505af11580156103e7573d6000803e3d6000fd5b505050506040513d6000823e601f3d908101601f19168201604052602081101561041057600080fd5b8101908080516040519392919084600160201b82111561042f57600080fd5b90830190602082018581111561044457600080fd5b82518660208202830111600160201b8211171561046057600080fd5b82525081516020918201928201910280838360005b8381101561048d578181015183820152602001610475565b50505050905001604052505050505050505050505050505050505050565b7f000000000000000000000000000000000000000000000000000000000000000081565b7f000000000000000000000000000000000000000000000000000000000000000081565b60008060006105028585610957565b509050600080610513888888610a35565b6001600160a01b0316630902f1ac6040518163ffffffff1660e01b815260040160606040518083038186803b15801561054b57600080fd5b505afa15801561055f573d6000803e3d6000fd5b505050506040513d606081101561057557600080fd5b5080516020909101516001600160701b0391821693501690506001600160a01b03878116908416146105a85780826105ab565b81815b90999098509650505050505050565b600080856105c9858786610af0565b10915060006105de858563ffffffff610ba816565b9050600061063061062b6105fa846103e863ffffffff610ba816565b866106055789610607565b8a5b6106266103e589610618578d61061a565b8c5b9063ffffffff610ba816565b610af0565b610c11565b905060006103e5856106535761064e876103e863ffffffff610ba816565b610665565b610665886103e863ffffffff610ba816565b8161066c57fe5b0490508082101561068757506000935083925061069d915050565b610697828263ffffffff610d5316565b93505050505b94509492505050565b604080516001600160a01b0385811660248301528481166044830152606480830185905283518084039091018152608490920183526020820180516001600160e01b03166323b872dd60e01b17815292518251600094606094938a169392918291908083835b6020831061072b5780518252601f19909201916020918201910161070c565b6001836020036101000a0380198251168184511680821785525050505050509050019150506000604051808303816000865af19150503d806000811461078d576040519150601f19603f3d011682016040523d82523d6000602084013e610792565b606091505b50915091508180156107c05750805115806107c057508080602001905160208110156107bd57600080fd5b50515b6107fb5760405162461bcd60e51b8152600401808060200182810382526031815260200180610e416031913960400191505060405180910390fd5b505050505050565b604080516001600160a01b038481166024830152604480830185905283518084039091018152606490920183526020820180516001600160e01b031663095ea7b360e01b178152925182516000946060949389169392918291908083835b602083106108805780518252601f199092019160209182019101610861565b6001836020036101000a0380198251168184511680821785525050505050509050019150506000604051808303816000865af19150503d80600081146108e2576040519150601f19603f3d011682016040523d82523d6000602084013e6108e7565b606091505b5091509150818015610915575080511580610915575080806020019051602081101561091257600080fd5b50515b6109505760405162461bcd60e51b815260040180806020018281038252602b815260200180610e97602b913960400191505060405180910390fd5b5050505050565b600080826001600160a01b0316846001600160a01b031614156109ab5760405162461bcd60e51b8152600401808060200182810382526025815260200180610e726025913960400191505060405180910390fd5b826001600160a01b0316846001600160a01b0316106109cb5782846109ce565b83835b90925090506001600160a01b038216610a2e576040805162461bcd60e51b815260206004820152601e60248201527f556e697377617056324c6962726172793a205a45524f5f414444524553530000604482015290519081900360640190fd5b9250929050565b6000806000610a448585610957565b604080516001600160601b0319606094851b811660208084019190915293851b81166034830152825160288184030181526048830184528051908501206001600160f81b031960688401529a90941b9093166069840152607d8301989098527f0968bfcf8adae8e1d3231abcf029e4786ce22a36909941f9b2b34daf79e193c4609d808401919091528851808403909101815260bd909201909752805196019590952095945050505050565b6000806000610aff8686610da3565b9150915060008480610b0d57fe5b868809905082811115610b21576001820391505b918290039181610b3f57848381610b3457fe5b049350505050610ba1565b848210610b90576040805162461bcd60e51b815260206004820152601a60248201527946756c6c4d6174683a2046554c4c4449565f4f564552464c4f5760301b604482015290519081900360640190fd5b610b9b838387610dd0565b93505050505b9392505050565b6000811580610bc357505080820282828281610bc057fe5b04145b610c0b576040805162461bcd60e51b815260206004820152601460248201527364732d6d6174682d6d756c2d6f766572666c6f7760601b604482015290519081900360640190fd5b92915050565b600081610c2057506000610d4e565b816001600160801b8210610c395760809190911c9060401b5b600160401b8210610c4f5760409190911c9060201b5b600160201b8210610c655760209190911c9060101b5b620100008210610c7a5760109190911c9060081b5b6101008210610c8e5760089190911c9060041b5b60108210610ca15760049190911c9060021b5b60088210610cad5760011b5b6001818581610cb857fe5b048201901c90506001818581610cca57fe5b048201901c90506001818581610cdc57fe5b048201901c90506001818581610cee57fe5b048201901c90506001818581610d0057fe5b048201901c90506001818581610d1257fe5b048201901c90506001818581610d2457fe5b048201901c90506000818581610d3657fe5b049050808210610d465780610d48565b815b93505050505b919050565b80820382811115610c0b576040805162461bcd60e51b815260206004820152601560248201527464732d6d6174682d7375622d756e646572666c6f7760581b604482015290519081900360640190fd5b6000808060001984860990508385029250828103915082811015610dc8576001820391505b509250929050565b60008181038216808381610de057fe5b049250808581610dec57fe5b049450808160000381610dfb57fe5b6002858103808702820302808702820302808702820302808702820302808702820302808702820302958602900390940293046001019390930293909301029291505056fe5472616e7366657248656c7065723a3a7472616e7366657246726f6d3a207472616e7366657246726f6d206661696c6564556e697377617056324c6962726172793a204944454e544943414c5f4144445245535345535472616e7366657248656c7065723a3a73616665417070726f76653a20617070726f7665206661696c65644578616d706c6553776170546f50726963653a205a45524f5f414d4f554e545f494ea2646970667358221220cb9e47c194b55694fbc837a9783d9f259a3ad701b6b83c12ce1024593cce67bc64736f6c63430006060033",
  "linkReferences": {},
  "deployedLinkReferences": {}
}