{
  "_format": "hh-sol-artifact-1",
  "contractName": "ExampleComputeLiquidityValue",
  "sourceName": "contracts/examples/ExampleComputeLiquidityValue.sol",
  "abi": [
    {
      "inputs": [
        {
          "internalType": "address",
          "name": "factory_",
          "type": "address"
        }
      ],
      "stateMutability": "nonpayable",
      "type": "constructor"
    },
    {
      "inputs": [],
      "name": "factory",
      "outputs": [
        {
          "internalType": "address",
          "name": "",
          "type": "address"
        }
      ],
      "stateMutability": "view",
      "type": "function"
    },
    {
      "inputs": [
        {
          "internalType": "address",
          "name": "tokenA",
          "type": "address"
        },
        {
          "internalType": "address",
          "name": "tokenB",
          "type": "address"
        },
        {
          "internalType": "uint256",
          "name": "truePriceTokenA",
          "type": "uint256"
        },
        {
          "internalType": "uint256",
          "name": "truePriceTokenB",
          "type": "uint256"
        },
        {
          "internalType": "uint256",
          "name": "liquidityAmount",
          "type": "uint256"
        }
      ],
      "name": "getGasCostOfGetLiquidityValueAfterArbitrageToPrice",
      "outputs": [
        {
          "internalType": "uint256",
          "name": "",
          "type": "uint256"
        }
      ],
      "stateMutability": "view",
      "type": "function"
    },
    {
      "inputs": [
        {
          "internalType": "address",
          "name": "tokenA",
          "type": "address"
        },
        {
          "internalType": "address",
          "name": "tokenB",
          "type": "address"
        },
        {
          "internalType": "uint256",
          "name": "liquidityAmount",
          "type": "uint256"
        }
      ],
      "name": "getLiquidityValue",
      "outputs": [
        {
          "internalType": "uint256",
          "name": "tokenAAmount",
          "type": "uint256"
        },
        {
          "internalType": "uint256",
          "name": "tokenBAmount",
          "type": "uint256"
        }
      ],
      "stateMutability": "view",
      "type": "function"
    },
    {
      "inputs": [
        {
          "internalType": "address",
          "name": "tokenA",
          "type": "address"
        },
        {
          "internalType": "address",
          "name": "tokenB",
          "type": "address"
        },
        {
          "internalType": "uint256",
          "name": "truePriceTokenA",
          "type": "uint256"
        },
        {
          "internalType": "uint256",
          "name": "truePriceTokenB",
          "type": "uint256"
        },
        {
          "internalType": "uint256",
          "name": "liquidityAmount",
          "type": "uint256"
        }
      ],
      "name": "getLiquidityValueAfterArbitrageToPrice",
      "outputs": [
        {
          "internalType": "uint256",
          "name": "tokenAAmount",
          "type": "uint256"
        },
        {
          "internalType": "uint256",
          "name": "tokenBAmount",
          "type": "uint256"
        }
      ],
      "stateMutability": "view",
      "type": "function"
    },
    {
      "inputs": [
        {
          "internalType": "address",
          "name": "tokenA",
          "type": "address"
        },
        {
          "internalType": "address",
          "name": "tokenB",
          "type": "address"
        },
        {
          "internalType": "uint256",
          "name": "truePriceTokenA",
          "type": "uint256"
        },
        {
          "internalType": "uint256",
          "name": "truePriceTokenB",
          "type": "uint256"
        }
      ],
      "name": "getReservesAfterArbitrage",
      "outputs": [
        {
          "internalType": "uint256",
          "name": "reserveA",
          "type": "uint256"
        },
        {
          "internalType": "uint256",
          "name": "reserveB",
          "type": "uint256"
        }
      ],
      "stateMutability": "view",
      "type": "function"
    }
  ],
  "bytecode": "0x60a060405234801561001057600080fd5b5060405161114d38038061114d8339818101604052602081101561003357600080fd5b5051606081901b6001600160601b0319166080526001600160a01b03166110d261007b600039806101a952806101e7528061022a5280610268528061029252506110d26000f3fe608060405234801561001057600080fd5b50600436106100575760003560e01c80633558e94c1461005c57806369a2fcbd146100b157806380caa353146100f3578063c45a015514610147578063d9b7a6e71461016b575b600080fd5b6100986004803603608081101561007257600080fd5b506001600160a01b038135811691602081013590911690604081013590606001356101a1565b6040805192835260208301919091528051918290030190f35b610098600480360360a08110156100c757600080fd5b506001600160a01b038135811691602081013590911690604081013590606081013590608001356101df565b610135600480360360a081101561010957600080fd5b506001600160a01b0381358116916020810135909116906040810135906060810135906080013561021f565b60408051918252519081900360200190f35b61014f610266565b604080516001600160a01b039092168252519081900360200190f35b6100986004803603606081101561018157600080fd5b506001600160a01b0381358116916020810135909116906040013561028a565b6000806101d17f0000000000000000000000000000000000000000000000000000000000000000878787876102c5565b915091505b94509492505050565b6000806102107f0000000000000000000000000000000000000000000000000000000000000000888888888861038a565b915091505b9550959350505050565b6000805a90506102537f0000000000000000000000000000000000000000000000000000000000000000888888888861038a565b505060005a909103979650505050505050565b7f000000000000000000000000000000000000000000000000000000000000000081565b6000806102b97f000000000000000000000000000000000000000000000000000000000000000086868661057b565b91509150935093915050565b6000806102d387878761071d565b909250905081158015906102e75750600081115b6103225760405162461bcd60e51b815260040180806020018281038252602d815260200180610fd1602d913960400191505060405180910390fd5b600080610331868686866107e4565b91509150806000141561034657506102159050565b81156103675760006103598286866108cf565b94820194909303925061037e565b60006103748285876108cf565b9094039350918201915b50509550959350505050565b6000806000806001600160a01b0316896001600160a01b031663017e7e586040518163ffffffff1660e01b815260040160206040518083038186803b1580156103d257600080fd5b505afa1580156103e6573d6000803e3d6000fd5b505050506040513d60208110156103fc57600080fd5b50516001600160a01b03161415905060006104188a8a8a6109bf565b905060008261042857600061048e565b816001600160a01b0316637464fc3d6040518163ffffffff1660e01b815260040160206040518083038186803b15801561046157600080fd5b505afa158015610475573d6000803e3d6000fd5b505050506040513d602081101561048b57600080fd5b50515b90506000826001600160a01b03166318160ddd6040518163ffffffff1660e01b815260040160206040518083038186803b1580156104cb57600080fd5b505afa1580156104df573d6000803e3d6000fd5b505050506040513d60208110156104f557600080fd5b505190508681108015906105095750600087115b6105445760405162461bcd60e51b815260040180806020018281038252602781526020018061104b6027913960400191505060405180910390fd5b6000806105548e8e8e8e8e6102c5565b915091506105668282858c8a89610a7a565b97509750505050505050965096945050505050565b60008060008061058c88888861071d565b91509150600061059d8989896109bf565b90506000806001600160a01b03168a6001600160a01b031663017e7e586040518163ffffffff1660e01b815260040160206040518083038186803b1580156105e457600080fd5b505afa1580156105f8573d6000803e3d6000fd5b505050506040513d602081101561060e57600080fd5b50516001600160a01b03161415905060008161062b576000610691565b826001600160a01b0316637464fc3d6040518163ffffffff1660e01b815260040160206040518083038186803b15801561066457600080fd5b505afa158015610678573d6000803e3d6000fd5b505050506040513d602081101561068e57600080fd5b50515b90506000836001600160a01b03166318160ddd6040518163ffffffff1660e01b815260040160206040518083038186803b1580156106ce57600080fd5b505afa1580156106e2573d6000803e3d6000fd5b505050506040513d60208110156106f857600080fd5b5051905061070a8686838c8787610a7a565b9750975050505050505094509492505050565b600080600061072c8585610b53565b50905060008061073d8888886109bf565b6001600160a01b0316630902f1ac6040518163ffffffff1660e01b815260040160606040518083038186803b15801561077557600080fd5b505afa158015610789573d6000803e3d6000fd5b505050506040513d606081101561079f57600080fd5b5080516020909101516001600160701b0391821693501690506001600160a01b03878116908416146107d25780826107d5565b81815b90999098509650505050505050565b600080856107f3858786610c31565b1091506000610808858563ffffffff610ce916565b9050600061085a610855610824846103e863ffffffff610ce916565b8661082f5789610831565b8a5b6108506103e589610842578d610844565b8c5b9063ffffffff610ce916565b610c31565b610d52565b905060006103e58561087d57610878876103e863ffffffff610ce916565b61088f565b61088f886103e863ffffffff610ce916565b8161089657fe5b049050808210156108b15750600093508392506101d6915050565b6108c1828263ffffffff610e9416565b935050505094509492505050565b600080841161090f5760405162461bcd60e51b815260040180806020018281038252602b815260200180611072602b913960400191505060405180910390fd5b60008311801561091f5750600082115b61095a5760405162461bcd60e51b81526004018080602001828103825260288152602001806110236028913960400191505060405180910390fd5b600061096e856103e563ffffffff610ce916565b90506000610982828563ffffffff610ce916565b905060006109a88361099c886103e863ffffffff610ce916565b9063ffffffff610ee416565b90508082816109b357fe5b04979650505050505050565b60008060006109ce8585610b53565b604080516001600160601b0319606094851b811660208084019190915293851b81166034830152825160288184030181526048830184528051908501206001600160f81b031960688401529a90941b9093166069840152607d8301989098527f0968bfcf8adae8e1d3231abcf029e4786ce22a36909941f9b2b34daf79e193c4609d808401919091528851808403909101815260bd909201909752805196019590952095945050505050565b600080838015610a8a5750600083115b15610b12576000610aa46108558a8a63ffffffff610ce916565b90506000610ab185610d52565b905080821115610b0f57876000610ace848463ffffffff610e9416565b90506000610ae78461099c87600563ffffffff610ce916565b90506000610af6848484610c31565b9050610b088c8263ffffffff610ee416565b9b50505050505b50505b85610b23898763ffffffff610ce916565b81610b2a57fe5b0486610b3c898863ffffffff610ce916565b81610b4357fe5b0491509150965096945050505050565b600080826001600160a01b0316846001600160a01b03161415610ba75760405162461bcd60e51b8152600401808060200182810382526025815260200180610ffe6025913960400191505060405180910390fd5b826001600160a01b0316846001600160a01b031610610bc7578284610bca565b83835b90925090506001600160a01b038216610c2a576040805162461bcd60e51b815260206004820152601e60248201527f556e697377617056324c6962726172793a205a45524f5f414444524553530000604482015290519081900360640190fd5b9250929050565b6000806000610c408686610f33565b9150915060008480610c4e57fe5b868809905082811115610c62576001820391505b918290039181610c8057848381610c7557fe5b049350505050610ce2565b848210610cd1576040805162461bcd60e51b815260206004820152601a60248201527946756c6c4d6174683a2046554c4c4449565f4f564552464c4f5760301b604482015290519081900360640190fd5b610cdc838387610f60565b93505050505b9392505050565b6000811580610d0457505080820282828281610d0157fe5b04145b610d4c576040805162461bcd60e51b815260206004820152601460248201527364732d6d6174682d6d756c2d6f766572666c6f7760601b604482015290519081900360640190fd5b92915050565b600081610d6157506000610e8f565b816001600160801b8210610d7a5760809190911c9060401b5b600160401b8210610d905760409190911c9060201b5b600160201b8210610da65760209190911c9060101b5b620100008210610dbb5760109190911c9060081b5b6101008210610dcf5760089190911c9060041b5b60108210610de25760049190911c9060021b5b60088210610dee5760011b5b6001818581610df957fe5b048201901c90506001818581610e0b57fe5b048201901c90506001818581610e1d57fe5b048201901c90506001818581610e2f57fe5b048201901c90506001818581610e4157fe5b048201901c90506001818581610e5357fe5b048201901c90506001818581610e6557fe5b048201901c90506000818581610e7757fe5b049050808210610e875780610e89565b815b93505050505b919050565b80820382811115610d4c576040805162461bcd60e51b815260206004820152601560248201527464732d6d6174682d7375622d756e646572666c6f7760581b604482015290519081900360640190fd5b80820182811015610d4c576040805162461bcd60e51b815260206004820152601460248201527364732d6d6174682d6164642d6f766572666c6f7760601b604482015290519081900360640190fd5b6000808060001984860990508385029250828103915082811015610f58576001820391505b509250929050565b60008181038216808381610f7057fe5b049250808581610f7c57fe5b049450808160000381610f8b57fe5b6002858103808702820302808702820302808702820302808702820302808702820302808702820302958602900390940293046001019390930293909301029291505056fe556e697377617056324172626974726167654c6962726172793a205a45524f5f504149525f5245534552564553556e697377617056324c6962726172793a204944454e544943414c5f414444524553534553556e697377617056324c6962726172793a20494e53554646494349454e545f4c4951554944495459436f6d707574654c697175696469747956616c75653a204c49515549444954595f414d4f554e54556e697377617056324c6962726172793a20494e53554646494349454e545f494e5055545f414d4f554e54a2646970667358221220cb8eb96adcc562a77d7af5b0780122a2fad40e062d87c390e8b4ccf817a818b764736f6c63430006060033",
  "linkReferences": {},
  "deployedLinkReferences": {}
}