{
  "_format": "hh-sol-artifact-1",
  "contractName": "ExampleFlashSwap",
  "sourceName": "contracts/examples/ExampleFlashSwap.sol",
  "abi": [
    {
      "inputs": [
        {
          "internalType": "address",
          "name": "_factory",
          "type": "address"
        },
        {
          "internalType": "address",
          "name": "_factoryV1",
          "type": "address"
        },
        {
          "internalType": "address",
          "name": "router",
          "type": "address"
        }
      ],
      "stateMutability": "nonpayable",
      "type": "constructor"
    },
    {
      "inputs": [
        {
          "internalType": "address",
          "name": "sender",
          "type": "address"
        },
        {
          "internalType": "uint256",
          "name": "amount0",
          "type": "uint256"
        },
        {
          "internalType": "uint256",
          "name": "amount1",
          "type": "uint256"
        },
        {
          "internalType": "bytes",
          "name": "data",
          "type": "bytes"
        }
      ],
      "name": "uniswapV2Call",
      "outputs": [],
      "stateMutability": "nonpayable",
      "type": "function"
    },
    {
      "stateMutability": "payable",
      "type": "receive"
    }
  ],
  "bytecode": "0x60e060405234801561001057600080fd5b506040516112123803806112128339818101604052606081101561003357600080fd5b5080516020808301516040938401516001600160601b0319606083811b821660805285901b1660a05284516315ab88c960e31b815294519394919390926001600160a01b0384169263ad5c46489260048083019392829003018186803b15801561009c57600080fd5b505afa1580156100b0573d6000803e3d6000fd5b505050506040513d60208110156100c657600080fd5b50516001600160601b031960609190911b1660c05250505060805160601c60a05160601c60c05160601c6110d26101406000398061027852806102ad52806102f252806103415280610393528061062952806106bf528061083b5250806101c152806105e2528061092352508061041452506110d26000f3fe6080604052600436106100225760003560e01c806310d1e85c1461002e57610029565b3661002957005b600080fd5b34801561003a57600080fd5b506100c56004803603608081101561005157600080fd5b6001600160a01b038235169160208101359160408201359190810190608081016060820135600160201b81111561008757600080fd5b82018360208201111561009957600080fd5b803590602001918460018302840111600160201b831117156100ba57600080fd5b5090925090506100c7565b005b60408051600280825260608083018452926020830190803683370190505090506000806000336001600160a01b0316630dfe16816040518163ffffffff1660e01b815260040160206040518083038186803b15801561012557600080fd5b505afa158015610139573d6000803e3d6000fd5b505050506040513d602081101561014f57600080fd5b50516040805163d21220a760e01b81529051919250600091339163d21220a7916004808301926020929190829003018186803b15801561018e57600080fd5b505afa1580156101a2573d6000803e3d6000fd5b505050506040513d60208110156101b857600080fd5b505190506101e77f00000000000000000000000000000000000000000000000000000000000000008383610a7f565b6001600160a01b0316336001600160a01b03161461020157fe5b88158061020c575087155b61021257fe5b881561021e5780610220565b815b8560008151811061022d57fe5b6001600160a01b039092166020928302919091019091015288156102515781610253565b805b8560018151811061026057fe5b6001600160a01b0392831660209182029290920101527f00000000000000000000000000000000000000000000000000000000000000008116908316146102a757886102a9565b875b93507f00000000000000000000000000000000000000000000000000000000000000006001600160a01b0316826001600160a01b0316146102ea57876102ec565b885b925050507f00000000000000000000000000000000000000000000000000000000000000006001600160a01b03168360008151811061032757fe5b60200260200101516001600160a01b0316148061038957507f00000000000000000000000000000000000000000000000000000000000000006001600160a01b03168360018151811061037657fe5b60200260200101516001600160a01b0316145b61038f57fe5b60007f00000000000000000000000000000000000000000000000000000000000000006001600160a01b0316846000815181106103c857fe5b60200260200101516001600160a01b0316146103f857836000815181106103eb57fe5b602002602001015161040e565b8360018151811061040557fe5b60200260200101515b905060007f00000000000000000000000000000000000000000000000000000000000000006001600160a01b03166306f2bf62836040518263ffffffff1660e01b815260040180826001600160a01b03166001600160a01b0316815260200191505060206040518083038186803b15801561048857600080fd5b505afa15801561049c573d6000803e3d6000fd5b505050506040513d60208110156104b257600080fd5b505190508315610803576000878760208110156104ce57600080fd5b506040805163095ea7b360e01b81526001600160a01b038581166004830152602482018990529151923593509085169163095ea7b3916044808201926020929091908290030181600087803b15801561052657600080fd5b505af115801561053a573d6000803e3d6000fd5b505050506040513d602081101561055057600080fd5b5050604080516395e3c50b60e01b81526004810187905260248101839052600019604482015290516000916001600160a01b038516916395e3c50b9160648082019260209290919082900301818787803b1580156105ad57600080fd5b505af11580156105c1573d6000803e3d6000fd5b505050506040513d60208110156105d757600080fd5b5051905060006106087f0000000000000000000000000000000000000000000000000000000000000000888a610b3a565b60008151811061061457fe5b6020026020010151905080821161062757fe5b7f00000000000000000000000000000000000000000000000000000000000000006001600160a01b031663d0e30db0826040518263ffffffff1660e01b81526004016000604051808303818588803b15801561068257600080fd5b505af1158015610696573d6000803e3d6000fd5b50506040805163a9059cbb60e01b81523360048201526024810186905290516001600160a01b037f000000000000000000000000000000000000000000000000000000000000000016945063a9059cbb9350604480830193506020928290030181600087803b15801561070857600080fd5b505af115801561071c573d6000803e3d6000fd5b505050506040513d602081101561073257600080fd5b505161073a57fe5b604080516000808252602082019092526001600160a01b038f1690838503906040518082805190602001908083835b602083106107885780518252601f199092019160209182019101610769565b6001836020036101000a03801982511681845116808217855250505050505090500191505060006040518083038185875af1925050503d80600081146107ea576040519150601f19603f3d011682016040523d82523d6000602084013e6107ef565b606091505b50509050806107fa57fe5b50505050610a73565b60008787602081101561081557600080fd5b5060408051632e1a7d4d60e01b8152600481018790529051913592506001600160a01b037f00000000000000000000000000000000000000000000000000000000000000001691632e1a7d4d9160248082019260009290919082900301818387803b15801561088357600080fd5b505af1158015610897573d6000803e3d6000fd5b505050506000826001600160a01b031663f39b5b9b86846000196040518463ffffffff1660e01b815260040180838152602001828152602001925050506020604051808303818588803b1580156108ed57600080fd5b505af1158015610901573d6000803e3d6000fd5b50505050506040513d602081101561091857600080fd5b5051905060006109497f0000000000000000000000000000000000000000000000000000000000000000878a610b3a565b60008151811061095557fe5b6020026020010151905080821161096857fe5b6040805163a9059cbb60e01b81523360048201526024810183905290516001600160a01b0387169163a9059cbb9160448083019260209291908290030181600087803b1580156109b757600080fd5b505af11580156109cb573d6000803e3d6000fd5b505050506040513d60208110156109e157600080fd5b50516109e957fe5b6040805163a9059cbb60e01b81526001600160a01b038f81166004830152838503602483015291519187169163a9059cbb916044808201926020929091908290030181600087803b158015610a3d57600080fd5b505af1158015610a51573d6000803e3d6000fd5b505050506040513d6020811015610a6757600080fd5b5051610a6f57fe5b5050505b50505050505050505050565b6000806000610a8e8585610c86565b604080516001600160601b0319606094851b811660208084019190915293851b81166034830152825160288184030181526048830184528051908501206001600160f81b031960688401529a90941b9093166069840152607d8301989098527f0968bfcf8adae8e1d3231abcf029e4786ce22a36909941f9b2b34daf79e193c4609d808401919091528851808403909101815260bd909201909752805196019590952095945050505050565b6060600282511015610b93576040805162461bcd60e51b815260206004820152601e60248201527f556e697377617056324c6962726172793a20494e56414c49445f504154480000604482015290519081900360640190fd5b81516001600160401b0381118015610baa57600080fd5b50604051908082528060200260200182016040528015610bd4578160200160208202803683370190505b5090508281600183510381518110610be857fe5b60209081029190910101528151600019015b8015610c7e57600080610c3787866001860381518110610c1657fe5b6020026020010151878681518110610c2a57fe5b6020026020010151610d64565b91509150610c59848481518110610c4a57fe5b60200260200101518383610e2b565b846001850381518110610c6857fe5b6020908102919091010152505060001901610bfa565b509392505050565b600080826001600160a01b0316846001600160a01b03161415610cda5760405162461bcd60e51b81526004018080602001828103825260258152602001806110506025913960400191505060405180910390fd5b826001600160a01b0316846001600160a01b031610610cfa578284610cfd565b83835b90925090506001600160a01b038216610d5d576040805162461bcd60e51b815260206004820152601e60248201527f556e697377617056324c6962726172793a205a45524f5f414444524553530000604482015290519081900360640190fd5b9250929050565b6000806000610d738585610c86565b509050600080610d84888888610a7f565b6001600160a01b0316630902f1ac6040518163ffffffff1660e01b815260040160606040518083038186803b158015610dbc57600080fd5b505afa158015610dd0573d6000803e3d6000fd5b505050506040513d6060811015610de657600080fd5b5080516020909101516001600160701b0391821693501690506001600160a01b0387811690841614610e19578082610e1c565b81815b90999098509650505050505050565b6000808411610e6b5760405162461bcd60e51b815260040180806020018281038252602c815260200180611024602c913960400191505060405180910390fd5b600083118015610e7b5750600082115b610eb65760405162461bcd60e51b81526004018080602001828103825260288152602001806110756028913960400191505060405180910390fd5b6000610eda6103e8610ece868863ffffffff610f1b16565b9063ffffffff610f1b16565b90506000610ef46103e5610ece868963ffffffff610f8416565b9050610f116001828481610f0457fe5b049063ffffffff610fd416565b9695505050505050565b6000811580610f3657505080820282828281610f3357fe5b04145b610f7e576040805162461bcd60e51b815260206004820152601460248201527364732d6d6174682d6d756c2d6f766572666c6f7760601b604482015290519081900360640190fd5b92915050565b80820382811115610f7e576040805162461bcd60e51b815260206004820152601560248201527464732d6d6174682d7375622d756e646572666c6f7760581b604482015290519081900360640190fd5b80820182811015610f7e576040805162461bcd60e51b815260206004820152601460248201527364732d6d6174682d6164642d6f766572666c6f7760601b604482015290519081900360640190fdfe556e697377617056324c6962726172793a20494e53554646494349454e545f4f55545055545f414d4f554e54556e697377617056324c6962726172793a204944454e544943414c5f414444524553534553556e697377617056324c6962726172793a20494e53554646494349454e545f4c4951554944495459a26469706673582212203e8c60bb45d81a6eb9237d1ec324d4eb4901f2dde0bfefbb3fba43d5ed3bfc5264736f6c63430006060033",
  "linkReferences": {},
  "deployedLinkReferences": {}
}